{
  "contractName": "HelloWorld",
  "abi": [
    {
      "constant": true,
      "inputs": [],
      "name": "sayHello",
      "outputs": [
        {
          "internalType": "string",
          "name": "",
          "type": "string"
        }
      ],
      "payable": false,
      "stateMutability": "pure",
      "type": "function"
    }
  ],
  "bytecode": "0x608060405234801561001057600080fd5b5061011d806100206000396000f3fe6080604052348015600f57600080fd5b506004361060285760003560e01c8063ef5fb05b14602d575b600080fd5b603360ab565b6040518080602001828103825283818151815260200191508051906020019080838360005b8381101560715780820151818401526020810190506058565b50505050905090810190601f168015609d5780820380516001836020036101000a031916815260200191505b509250505060405180910390f35b60606040518060400160405280600c81526020017f48656c6c6f20576f726c6421000000000000000000000000000000000000000081525090509056fea265627a7a72315820a3eb265e1e82bd6420f23ed0c3087bacc5b43b260840f213d68cd3d7a1ab9af364736f6c63430005100032",
  "source": "// SPDX-License-Identifier: MIT\npragma solidity >=0.4.22 <0.9.0;\n\ncontract HelloWorld {\n    function sayHello() public pure returns (string memory) {\n        return 'Hello World!';\n    }\n}\n",
  "sourcePath": "C:\\Users\\Aneesa\\PycharmProjects\\blockchain\\hello-eth\\contracts\\HelloWorld.sol",
  "compiler": {
    "name": "solc",
    "version": "0.5.16+commit.9c3226ce.Emscripten.clang"
  },
  "schemaVersion": "3.4.2",
  "updatedAt": "2021-07-29T16:43:33.119Z",
  "devdoc": {
    "methods": {}
  },
  "userdoc": {
    "methods": {}
  }
}